{
  "_format": "hh-sol-artifact-1",
  "contractName": "PancakeRouter_mod",
  "sourceName": "contracts/PancakeRouter_mod.sol",
  "abi": [
    {
      "inputs": [
        {
          "internalType": "address",
          "name": "_factory",
          "type": "address"
        },
        {
          "internalType": "address",
          "name": "_WETH",
          "type": "address"
        },
        {
          "internalType": "address",
          "name": "_LSRAddress",
          "type": "address"
        }
      ],
      "stateMutability": "nonpayable",
      "type": "constructor"
    },
    {
      "anonymous": false,
      "inputs": [
        {
          "indexed": true,
          "internalType": "uint256",
          "name": "amountA",
          "type": "uint256"
        },
        {
          "indexed": true,
          "internalType": "uint256",
          "name": "amountB",
          "type": "uint256"
        }
      ],
      "name": "AddLiquidity",
      "type": "event"
    },
    {
      "anonymous": false,
      "inputs": [
        {
          "indexed": true,
          "internalType": "address",
          "name": "_token",
          "type": "address"
        },
        {
          "indexed": true,
          "internalType": "uint256",
          "name": "_fee",
          "type": "uint256"
        }
      ],
      "name": "FeeCharged",
      "type": "event"
    },
    {
      "anonymous": false,
      "inputs": [
        {
          "indexed": true,
          "internalType": "address",
          "name": "previousOwner",
          "type": "address"
        },
        {
          "indexed": true,
          "internalType": "address",
          "name": "newOwner",
          "type": "address"
        }
      ],
      "name": "OwnershipTransferred",
      "type": "event"
    },
    {
      "anonymous": false,
      "inputs": [
        {
          "indexed": true,
          "internalType": "bytes32",
          "name": "role",
          "type": "bytes32"
        },
        {
          "indexed": true,
          "internalType": "bytes32",
          "name": "previousAdminRole",
          "type": "bytes32"
        },
        {
          "indexed": true,
          "internalType": "bytes32",
          "name": "newAdminRole",
          "type": "bytes32"
        }
      ],
      "name": "RoleAdminChanged",
      "type": "event"
    },
    {
      "anonymous": false,
      "inputs": [
        {
          "indexed": true,
          "internalType": "bytes32",
          "name": "role",
          "type": "bytes32"
        },
        {
          "indexed": true,
          "internalType": "address",
          "name": "account",
          "type": "address"
        },
        {
          "indexed": true,
          "internalType": "address",
          "name": "sender",
          "type": "address"
        }
      ],
      "name": "RoleGranted",
      "type": "event"
    },
    {
      "anonymous": false,
      "inputs": [
        {
          "indexed": true,
          "internalType": "bytes32",
          "name": "role",
          "type": "bytes32"
        },
        {
          "indexed": true,
          "internalType": "address",
          "name": "account",
          "type": "address"
        },
        {
          "indexed": true,
          "internalType": "address",
          "name": "sender",
          "type": "address"
        }
      ],
      "name": "RoleRevoked",
      "type": "event"
    },
    {
      "anonymous": false,
      "inputs": [
        {
          "indexed": true,
          "internalType": "uint256",
          "name": "_lsrMinBalance",
          "type": "uint256"
        }
      ],
      "name": "SetLsrMinBalance",
      "type": "event"
    },
    {
      "anonymous": false,
      "inputs": [
        {
          "indexed": true,
          "internalType": "uint256",
          "name": "_swapFee",
          "type": "uint256"
        }
      ],
      "name": "SetSwapFee",
      "type": "event"
    },
    {
      "anonymous": false,
      "inputs": [
        {
          "indexed": true,
          "internalType": "address",
          "name": "_token",
          "type": "address"
        },
        {
          "indexed": false,
          "internalType": "uint256",
          "name": "_totalBalance",
          "type": "uint256"
        }
      ],
      "name": "WithdrawFees",
      "type": "event"
    },
    {
      "inputs": [],
      "name": "ADMIN_ROLE",
      "outputs": [
        {
          "internalType": "bytes32",
          "name": "",
          "type": "bytes32"
        }
      ],
      "stateMutability": "view",
      "type": "function"
    },
    {
      "inputs": [],
      "name": "DEFAULT_ADMIN_ROLE",
      "outputs": [
        {
          "internalType": "bytes32",
          "name": "",
          "type": "bytes32"
        }
      ],
      "stateMutability": "view",
      "type": "function"
    },
    {
      "inputs": [],
      "name": "OWNER_ROLE",
      "outputs": [
        {
          "internalType": "bytes32",
          "name": "",
          "type": "bytes32"
        }
      ],
      "stateMutability": "view",
      "type": "function"
    },
    {
      "inputs": [],
      "name": "WETH",
      "outputs": [
        {
          "internalType": "address",
          "name": "",
          "type": "address"
        }
      ],
      "stateMutability": "view",
      "type": "function"
    },
    {
      "inputs": [
        {
          "internalType": "address",
          "name": "tokenA",
          "type": "address"
        },
        {
          "internalType": "address",
          "name": "tokenB",
          "type": "address"
        },
        {
          "internalType": "uint256",
          "name": "amountADesired",
          "type": "uint256"
        },
        {
          "internalType": "uint256",
          "name": "amountBDesired",
          "type": "uint256"
        },
        {
          "internalType": "uint256",
          "name": "amountAMin",
          "type": "uint256"
        },
        {
          "internalType": "uint256",
          "name": "amountBMin",
          "type": "uint256"
        },
        {
          "internalType": "address",
          "name": "to",
          "type": "address"
        },
        {
          "internalType": "uint256",
          "name": "deadline",
          "type": "uint256"
        }
      ],
      "name": "addLiquidity",
      "outputs": [
        {
          "internalType": "uint256",
          "name": "amountA",
          "type": "uint256"
        },
        {
          "internalType": "uint256",
          "name": "amountB",
          "type": "uint256"
        },
        {
          "internalType": "uint256",
          "name": "liquidity",
          "type": "uint256"
        }
      ],
      "stateMutability": "nonpayable",
      "type": "function"
    },
    {
      "inputs": [],
      "name": "factory",
      "outputs": [
        {
          "internalType": "address",
          "name": "",
          "type": "address"
        }
      ],
      "stateMutability": "view",
      "type": "function"
    },
    {
      "inputs": [],
      "name": "getAdminAddress",
      "outputs": [
        {
          "internalType": "address",
          "name": "",
          "type": "address"
        }
      ],
      "stateMutability": "view",
      "type": "function"
    },
    {
      "inputs": [
        {
          "internalType": "uint256",
          "name": "amountOut",
          "type": "uint256"
        },
        {
          "internalType": "uint256",
          "name": "reserveIn",
          "type": "uint256"
        },
        {
          "internalType": "uint256",
          "name": "reserveOut",
          "type": "uint256"
        }
      ],
      "name": "getAmountIn",
      "outputs": [
        {
          "internalType": "uint256",
          "name": "amountIn",
          "type": "uint256"
        }
      ],
      "stateMutability": "pure",
      "type": "function"
    },
    {
      "inputs": [
        {
          "internalType": "uint256",
          "name": "amountIn",
          "type": "uint256"
        },
        {
          "internalType": "uint256",
          "name": "reserveIn",
          "type": "uint256"
        },
        {
          "internalType": "uint256",
          "name": "reserveOut",
          "type": "uint256"
        }
      ],
      "name": "getAmountOut",
      "outputs": [
        {
          "internalType": "uint256",
          "name": "amountOut",
          "type": "uint256"
        }
      ],
      "stateMutability": "pure",
      "type": "function"
    },
    {
      "inputs": [
        {
          "internalType": "uint256",
          "name": "amountOut",
          "type": "uint256"
        },
        {
          "internalType": "address[]",
          "name": "path",
          "type": "address[]"
        }
      ],
      "name": "getAmountsIn",
      "outputs": [
        {
          "internalType": "uint256[]",
          "name": "amounts",
          "type": "uint256[]"
        }
      ],
      "stateMutability": "view",
      "type": "function"
    },
    {
      "inputs": [
        {
          "internalType": "uint256",
          "name": "amountIn",
          "type": "uint256"
        },
        {
          "internalType": "address[]",
          "name": "path",
          "type": "address[]"
        }
      ],
      "name": "getAmountsOut",
      "outputs": [
        {
          "internalType": "uint256[]",
          "name": "amounts",
          "type": "uint256[]"
        }
      ],
      "stateMutability": "view",
      "type": "function"
    },
    {
      "inputs": [],
      "name": "getLsrMinBalance",
      "outputs": [
        {
          "internalType": "uint256",
          "name": "",
          "type": "uint256"
        }
      ],
      "stateMutability": "view",
      "type": "function"
    },
    {
      "inputs": [
        {
          "internalType": "bytes32",
          "name": "role",
          "type": "bytes32"
        }
      ],
      "name": "getRoleAdmin",
      "outputs": [
        {
          "internalType": "bytes32",
          "name": "",
          "type": "bytes32"
        }
      ],
      "stateMutability": "view",
      "type": "function"
    },
    {
      "inputs": [],
      "name": "getSwapFee",
      "outputs": [
        {
          "internalType": "uint256",
          "name": "",
          "type": "uint256"
        }
      ],
      "stateMutability": "view",
      "type": "function"
    },
    {
      "inputs": [
        {
          "internalType": "bytes32",
          "name": "role",
          "type": "bytes32"
        },
        {
          "internalType": "address",
          "name": "account",
          "type": "address"
        }
      ],
      "name": "grantRole",
      "outputs": [],
      "stateMutability": "nonpayable",
      "type": "function"
    },
    {
      "inputs": [
        {
          "internalType": "bytes32",
          "name": "role",
          "type": "bytes32"
        },
        {
          "internalType": "address",
          "name": "account",
          "type": "address"
        }
      ],
      "name": "hasRole",
      "outputs": [
        {
          "internalType": "bool",
          "name": "",
          "type": "bool"
        }
      ],
      "stateMutability": "view",
      "type": "function"
    },
    {
      "inputs": [],
      "name": "owner",
      "outputs": [
        {
          "internalType": "address",
          "name": "",
          "type": "address"
        }
      ],
      "stateMutability": "view",
      "type": "function"
    },
    {
      "inputs": [
        {
          "internalType": "uint256",
          "name": "amountA",
          "type": "uint256"
        },
        {
          "internalType": "uint256",
          "name": "reserveA",
          "type": "uint256"
        },
        {
          "internalType": "uint256",
          "name": "reserveB",
          "type": "uint256"
        }
      ],
      "name": "quote",
      "outputs": [
        {
          "internalType": "uint256",
          "name": "amountB",
          "type": "uint256"
        }
      ],
      "stateMutability": "pure",
      "type": "function"
    },
    {
      "inputs": [
        {
          "internalType": "address",
          "name": "tokenA",
          "type": "address"
        },
        {
          "internalType": "address",
          "name": "tokenB",
          "type": "address"
        },
        {
          "internalType": "uint256",
          "name": "liquidity",
          "type": "uint256"
        },
        {
          "internalType": "uint256",
          "name": "amountAMin",
          "type": "uint256"
        },
        {
          "internalType": "uint256",
          "name": "amountBMin",
          "type": "uint256"
        },
        {
          "internalType": "address",
          "name": "to",
          "type": "address"
        },
        {
          "internalType": "uint256",
          "name": "deadline",
          "type": "uint256"
        }
      ],
      "name": "removeLiquidity",
      "outputs": [
        {
          "internalType": "uint256",
          "name": "amountA",
          "type": "uint256"
        },
        {
          "internalType": "uint256",
          "name": "amountB",
          "type": "uint256"
        }
      ],
      "stateMutability": "nonpayable",
      "type": "function"
    },
    {
      "inputs": [
        {
          "internalType": "address",
          "name": "tokenA",
          "type": "address"
        },
        {
          "internalType": "address",
          "name": "tokenB",
          "type": "address"
        },
        {
          "internalType": "uint256",
          "name": "liquidity",
          "type": "uint256"
        },
        {
          "internalType": "uint256",
          "name": "amountAMin",
          "type": "uint256"
        },
        {
          "internalType": "uint256",
          "name": "amountBMin",
          "type": "uint256"
        },
        {
          "internalType": "address",
          "name": "to",
          "type": "address"
        },
        {
          "internalType": "uint256",
          "name": "deadline",
          "type": "uint256"
        },
        {
          "internalType": "bool",
          "name": "approveMax",
          "type": "bool"
        },
        {
          "internalType": "uint8",
          "name": "v",
          "type": "uint8"
        },
        {
          "internalType": "bytes32",
          "name": "r",
          "type": "bytes32"
        },
        {
          "internalType": "bytes32",
          "name": "s",
          "type": "bytes32"
        }
      ],
      "name": "removeLiquidityWithPermit",
      "outputs": [
        {
          "internalType": "uint256",
          "name": "amountA",
          "type": "uint256"
        },
        {
          "internalType": "uint256",
          "name": "amountB",
          "type": "uint256"
        }
      ],
      "stateMutability": "nonpayable",
      "type": "function"
    },
    {
      "inputs": [],
      "name": "renounceOwnership",
      "outputs": [],
      "stateMutability": "nonpayable",
      "type": "function"
    },
    {
      "inputs": [
        {
          "internalType": "bytes32",
          "name": "role",
          "type": "bytes32"
        },
        {
          "internalType": "address",
          "name": "account",
          "type": "address"
        }
      ],
      "name": "renounceRole",
      "outputs": [],
      "stateMutability": "nonpayable",
      "type": "function"
    },
    {
      "inputs": [
        {
          "internalType": "bytes32",
          "name": "role",
          "type": "bytes32"
        },
        {
          "internalType": "address",
          "name": "account",
          "type": "address"
        }
      ],
      "name": "revokeRole",
      "outputs": [],
      "stateMutability": "nonpayable",
      "type": "function"
    },
    {
      "inputs": [
        {
          "internalType": "address",
          "name": "_adminAddress",
          "type": "address"
        }
      ],
      "name": "setAdminAddress",
      "outputs": [],
      "stateMutability": "nonpayable",
      "type": "function"
    },
    {
      "inputs": [
        {
          "internalType": "uint256",
          "name": "_lsrMinBalance",
          "type": "uint256"
        }
      ],
      "name": "setLsrMinBalance",
      "outputs": [],
      "stateMutability": "nonpayable",
      "type": "function"
    },
    {
      "inputs": [
        {
          "internalType": "uint256",
          "name": "_swapFee",
          "type": "uint256"
        }
      ],
      "name": "setSwapFee",
      "outputs": [],
      "stateMutability": "nonpayable",
      "type": "function"
    },
    {
      "inputs": [
        {
          "internalType": "uint256",
          "name": "amountIn",
          "type": "uint256"
        },
        {
          "internalType": "uint256",
          "name": "amountOutMin",
          "type": "uint256"
        },
        {
          "internalType": "address[]",
          "name": "path",
          "type": "address[]"
        },
        {
          "internalType": "address",
          "name": "to",
          "type": "address"
        },
        {
          "internalType": "uint256",
          "name": "deadline",
          "type": "uint256"
        }
      ],
      "name": "swapExactTokensForTokens",
      "outputs": [
        {
          "internalType": "uint256[]",
          "name": "amounts",
          "type": "uint256[]"
        }
      ],
      "stateMutability": "payable",
      "type": "function"
    },
    {
      "inputs": [
        {
          "internalType": "uint256",
          "name": "amountIn",
          "type": "uint256"
        },
        {
          "internalType": "uint256",
          "name": "amountOutMin",
          "type": "uint256"
        },
        {
          "internalType": "address[]",
          "name": "path",
          "type": "address[]"
        },
        {
          "internalType": "address",
          "name": "to",
          "type": "address"
        },
        {
          "internalType": "uint256",
          "name": "deadline",
          "type": "uint256"
        }
      ],
      "name": "swapExactTokensForTokensSupportingFeeOnTransferTokens",
      "outputs": [],
      "stateMutability": "payable",
      "type": "function"
    },
    {
      "inputs": [
        {
          "internalType": "uint256",
          "name": "amountOut",
          "type": "uint256"
        },
        {
          "internalType": "uint256",
          "name": "amountInMax",
          "type": "uint256"
        },
        {
          "internalType": "address[]",
          "name": "path",
          "type": "address[]"
        },
        {
          "internalType": "address",
          "name": "to",
          "type": "address"
        },
        {
          "internalType": "uint256",
          "name": "deadline",
          "type": "uint256"
        }
      ],
      "name": "swapTokensForExactTokens",
      "outputs": [
        {
          "internalType": "uint256[]",
          "name": "amounts",
          "type": "uint256[]"
        }
      ],
      "stateMutability": "nonpayable",
      "type": "function"
    },
    {
      "inputs": [
        {
          "internalType": "address",
          "name": "newOwner",
          "type": "address"
        }
      ],
      "name": "transferOwnership",
      "outputs": [],
      "stateMutability": "nonpayable",
      "type": "function"
    },
    {
      "inputs": [
        {
          "internalType": "address",
          "name": "_token",
          "type": "address"
        }
      ],
      "name": "withdrawFees",
      "outputs": [],
      "stateMutability": "nonpayable",
      "type": "function"
    },
    {
      "stateMutability": "payable",
      "type": "receive"
    }
  ],
  "bytecode": "0x60c0604052600a60035560646004553480156200001b57600080fd5b50604051620054de380380620054de833981810160405260608110156200004157600080fd5b81019080805190602001909291908051906020019092919080519060200190929190505050620000866200007a6200027560201b60201c565b6200027d60201b60201c565b8273ffffffffffffffffffffffffffffffffffffffff1660808173ffffffffffffffffffffffffffffffffffffffff1660601b815250508173ffffffffffffffffffffffffffffffffffffffff1660a08173ffffffffffffffffffffffffffffffffffffffff1660601b8152505080600560006101000a81548173ffffffffffffffffffffffffffffffffffffffff021916908373ffffffffffffffffffffffffffffffffffffffff16021790555033600260006101000a81548173ffffffffffffffffffffffffffffffffffffffff021916908373ffffffffffffffffffffffffffffffffffffffff160217905550620001ce60405160200180807f4f574e4552000000000000000000000000000000000000000000000000000000815250600501905060405160208183030381529060405280519060200120336200034160201b60201c565b6200026c60405160200180807f41444d494e00000000000000000000000000000000000000000000000000000081525060050190506040516020818303038152906040528051906020012060405160200180807f4f574e45520000000000000000000000000000000000000000000000000000008152506005019050604051602081830303815290604052805190602001206200035760201b60201c565b50505062000537565b600033905090565b60008060009054906101000a900473ffffffffffffffffffffffffffffffffffffffff169050816000806101000a81548173ffffffffffffffffffffffffffffffffffffffff021916908373ffffffffffffffffffffffffffffffffffffffff1602179055508173ffffffffffffffffffffffffffffffffffffffff168173ffffffffffffffffffffffffffffffffffffffff167f8be0079c531659141344cd1fd0a4f28419497f9722a3daafe3b4186f6b6457e060405160405180910390a35050565b620003538282620003bb60201b60201c565b5050565b60006200036a83620004ac60201b60201c565b90508160016000858152602001908152602001600020600101819055508181847fbd79b86ffe0ab8e8776151514217cd7cacd52c909f66475c3af44e129f0b00ff60405160405180910390a4505050565b620003cd8282620004cc60201b60201c565b620004a857600180600084815260200190815260200160002060000160008373ffffffffffffffffffffffffffffffffffffffff1673ffffffffffffffffffffffffffffffffffffffff16815260200190815260200160002060006101000a81548160ff0219169083151502179055506200044d6200027560201b60201c565b73ffffffffffffffffffffffffffffffffffffffff168173ffffffffffffffffffffffffffffffffffffffff16837f2f8788117e7eff1d82e926ec794901d17c78024a50270940304540a733656f0d60405160405180910390a45b5050565b600060016000838152602001908152602001600020600101549050919050565b60006001600084815260200190815260200160002060000160008373ffffffffffffffffffffffffffffffffffffffff1673ffffffffffffffffffffffffffffffffffffffff16815260200190815260200160002060009054906101000a900460ff16905092915050565b60805160601c60a05160601c614f1e620005c0600039806101e3528061260452508061137c52806113b452806119485280611bd25280611cde5280611f6c528061236b528061247452806126e752806129e95280612a125280612b4e52806136cb528061370f52806139045280613b6b52806142d152806143f9528061450f5250614f1e6000f3fe6080604052600436106101dc5760003560e01c80638803dbee11610102578063baa2abde11610095578063d547741f11610064578063d547741f14610f0f578063e58378bb14610f6a578063e8e3370014610f95578063f2fde38b1461107b57610238565b8063baa2abde14610c95578063c45a015514610d69578063d06ca61f14610dc0578063d4cadf6814610ee457610238565b8063a47d7fbf116100d1578063a47d7fbf14610b59578063ad5c464814610b84578063ad615dec14610bdb578063b2e6b91214610c3e57610238565b80638803dbee1461094b5780638da5cb5b14610a6457806391d1485414610abb578063a217fddf14610b2e57610238565b806334e199071161017a5780635c11d795116101495780635c11d795146107ef578063715018a6146108a657806375b238fc146108bd57806385f8c259146108e857610238565b806334e199071461061257806336568abe1461064d57806338ed1739146106a857806339c7ddcc146107b457610238565b80632195995c116101b65780632195995c14610415578063248a9ca3146105175780632c1e816d146105665780632f2ff15d146105b757610238565b8063054d50d41461023d578063164e68de146102a05780631f00ca74146102f157610238565b36610238577f000000000000000000000000000000000000000000000000000000000000000073ffffffffffffffffffffffffffffffffffffffff163373ffffffffffffffffffffffffffffffffffffffff161461023657fe5b005b600080fd5b34801561024957600080fd5b5061028a6004803603606081101561026057600080fd5b810190808035906020019092919080359060200190929190803590602001909291905050506110cc565b6040518082815260200191505060405180910390f35b3480156102ac57600080fd5b506102ef600480360360208110156102c357600080fd5b81019080803573ffffffffffffffffffffffffffffffffffffffff1690602001909291905050506110e2565b005b3480156102fd57600080fd5b506103be6004803603604081101561031457600080fd5b81019080803590602001909291908035906020019064010000000081111561033b57600080fd5b82018360208201111561034d57600080fd5b8035906020019184602083028401116401000000008311171561036f57600080fd5b919080806020026020016040519081016040528093929190818152602001838360200280828437600081840152601f19601f820116905080830192505050505050509192919290505050611375565b6040518080602001828103825283818151815260200191508051906020019060200280838360005b838110156104015780820151818401526020810190506103e6565b505050509050019250505060405180910390f35b34801561042157600080fd5b506104fa600480360361016081101561043957600080fd5b81019080803573ffffffffffffffffffffffffffffffffffffffff169060200190929190803573ffffffffffffffffffffffffffffffffffffffff169060200190929190803590602001909291908035906020019092919080359060200190929190803573ffffffffffffffffffffffffffffffffffffffff16906020019092919080359060200190929190803515159060200190929190803560ff16906020019092919080359060200190929190803590602001909291905050506113aa565b604051808381526020018281526020019250505060405180910390f35b34801561052357600080fd5b506105506004803603602081101561053a57600080fd5b810190808035906020019092919050505061152f565b6040518082815260200191505060405180910390f35b34801561057257600080fd5b506105b56004803603602081101561058957600080fd5b81019080803573ffffffffffffffffffffffffffffffffffffffff16906020019092919050505061154f565b005b3480156105c357600080fd5b50610610600480360360408110156105da57600080fd5b8101908080359060200190929190803573ffffffffffffffffffffffffffffffffffffffff169060200190929190505050611717565b005b34801561061e57600080fd5b5061064b6004803603602081101561063557600080fd5b8101908080359060200190929190505050611738565b005b34801561065957600080fd5b506106a66004803603604081101561067057600080fd5b8101908080359060200190929190803573ffffffffffffffffffffffffffffffffffffffff169060200190929190505050611831565b005b61075d600480360360a08110156106be57600080fd5b810190808035906020019092919080359060200190929190803590602001906401000000008111156106ef57600080fd5b82018360208201111561070157600080fd5b8035906020019184602083028401116401000000008311171561072357600080fd5b9091929391929390803573ffffffffffffffffffffffffffffffffffffffff169060200190929190803590602001909291905050506118ca565b6040518080602001828103825283818151815260200191508051906020019060200280838360005b838110156107a0578082015181840152602081019050610785565b505050509050019250505060405180910390f35b3480156107c057600080fd5b506107ed600480360360208110156107d757600080fd5b8101908080359060200190929190505050611dc9565b005b6108a4600480360360a081101561080557600080fd5b8101908080359060200190929190803590602001909291908035906020019064010000000081111561083657600080fd5b82018360208201111561084857600080fd5b8035906020019184602083028401116401000000008311171561086a57600080fd5b9091929391929390803573ffffffffffffffffffffffffffffffffffffffff16906020019092919080359060200190929190505050611ec2565b005b3480156108b257600080fd5b506108bb612279565b005b3480156108c957600080fd5b506108d261228d565b6040518082815260200191505060405180910390f35b3480156108f457600080fd5b506109356004803603606081101561090b57600080fd5b810190808035906020019092919080359060200190929190803590602001909291905050506122d7565b6040518082815260200191505060405180910390f35b34801561095757600080fd5b50610a0d600480360360a081101561096e57600080fd5b8101908080359060200190929190803590602001909291908035906020019064010000000081111561099f57600080fd5b8201836020820111156109b157600080fd5b803590602001918460208302840111640100000000831117156109d357600080fd5b9091929391929390803573ffffffffffffffffffffffffffffffffffffffff169060200190929190803590602001909291905050506122ed565b6040518080602001828103825283818151815260200191508051906020019060200280838360005b83811015610a50578082015181840152602081019050610a35565b505050509050019250505060405180910390f35b348015610a7057600080fd5b50610a7961255d565b604051808273ffffffffffffffffffffffffffffffffffffffff1673ffffffffffffffffffffffffffffffffffffffff16815260200191505060405180910390f35b348015610ac757600080fd5b50610b1460048036036040811015610ade57600080fd5b8101908080359060200190929190803573ffffffffffffffffffffffffffffffffffffffff169060200190929190505050612586565b604051808215151515815260200191505060405180910390f35b348015610b3a57600080fd5b50610b436125f1565b6040518082815260200191505060405180910390f35b348015610b6557600080fd5b50610b6e6125f8565b6040518082815260200191505060405180910390f35b348015610b9057600080fd5b50610b99612602565b604051808273ffffffffffffffffffffffffffffffffffffffff1673ffffffffffffffffffffffffffffffffffffffff16815260200191505060405180910390f35b348015610be757600080fd5b50610c2860048036036060811015610bfe57600080fd5b81019080803590602001909291908035906020019092919080359060200190929190505050612626565b6040518082815260200191505060405180910390f35b348015610c4a57600080fd5b50610c5361263c565b604051808273ffffffffffffffffffffffffffffffffffffffff1673ffffffffffffffffffffffffffffffffffffffff16815260200191505060405180910390f35b348015610ca157600080fd5b50610d4c600480360360e0811015610cb857600080fd5b81019080803573ffffffffffffffffffffffffffffffffffffffff169060200190929190803573ffffffffffffffffffffffffffffffffffffffff169060200190929190803590602001909291908035906020019092919080359060200190929190803573ffffffffffffffffffffffffffffffffffffffff16906020019092919080359060200190929190505050612666565b604051808381526020018281526020019250505060405180910390f35b348015610d7557600080fd5b50610d7e6129e7565b604051808273ffffffffffffffffffffffffffffffffffffffff1673ffffffffffffffffffffffffffffffffffffffff16815260200191505060405180910390f35b348015610dcc57600080fd5b50610e8d60048036036040811015610de357600080fd5b810190808035906020019092919080359060200190640100000000811115610e0a57600080fd5b820183602082011115610e1c57600080fd5b80359060200191846020830284011164010000000083111715610e3e57600080fd5b919080806020026020016040519081016040528093929190818152602001838360200280828437600081840152601f19601f820116905080830192505050505050509192919290505050612a0b565b6040518080602001828103825283818151815260200191508051906020019060200280838360005b83811015610ed0578082015181840152602081019050610eb5565b505050509050019250505060405180910390f35b348015610ef057600080fd5b50610ef9612a40565b6040518082815260200191505060405180910390f35b348015610f1b57600080fd5b50610f6860048036036040811015610f3257600080fd5b8101908080359060200190929190803573ffffffffffffffffffffffffffffffffffffffff169060200190929190505050612a4a565b005b348015610f7657600080fd5b50610f7f612a6b565b6040518082815260200191505060405180910390f35b348015610fa157600080fd5b506110576004803603610100811015610fb957600080fd5b81019080803573ffffffffffffffffffffffffffffffffffffffff169060200190929190803573ffffffffffffffffffffffffffffffffffffffff16906020019092919080359060200190929190803590602001909291908035906020019092919080359060200190929190803573ffffffffffffffffffffffffffffffffffffffff16906020019092919080359060200190929190505050612ab5565b60405180848152602001838152602001828152602001935050505060405180910390f35b34801561108757600080fd5b506110ca6004803603602081101561109e57600080fd5b81019080803573ffffffffffffffffffffffffffffffffffffffff169060200190929190505050612c5a565b005b60006110d9848484612cf4565b90509392505050565b61113260405160200180807f41444d494e00000000000000000000000000000000000000000000000000000081525060050190506040516020818303038152906040528051906020012033612586565b6111a4576040517f08c379a00000000000000000000000000000000000000000000000000000000081526004018080602001828103825260198152602001807f50726f6869626974656420666f72206e6f6e2061646d696e730000000000000081525060200191505060405180910390fd5b60008173ffffffffffffffffffffffffffffffffffffffff166370a08231306040518263ffffffff1660e01b8152600401808273ffffffffffffffffffffffffffffffffffffffff1673ffffffffffffffffffffffffffffffffffffffff16815260200191505060206040518083038186803b15801561122357600080fd5b505afa158015611237573d6000803e3d6000fd5b505050506040513d602081101561124d57600080fd5b810190808051906020019092919050505090508173ffffffffffffffffffffffffffffffffffffffff1663a9059cbb33836040518363ffffffff1660e01b8152600401808373ffffffffffffffffffffffffffffffffffffffff1673ffffffffffffffffffffffffffffffffffffffff16815260200182815260200192505050602060405180830381600087803b1580156112e757600080fd5b505af11580156112fb573d6000803e3d6000fd5b505050506040513d602081101561131157600080fd5b8101908080519060200190929190505050508173ffffffffffffffffffffffffffffffffffffffff167f9bba815921f12cb7b1408e14b5ade745234397d39623ae5e7c82d693cb45815f826040518082815260200191505060405180910390a25050565b60606113a27f00000000000000000000000000000000000000000000000000000000000000008484612e24565b905092915050565b60008060006113da7f00000000000000000000000000000000000000000000000000000000000000008f8f612fa4565b90506000876113e9578c61140b565b7fffffffffffffffffffffffffffffffffffffffffffffffffffffffffffffffff5b90508173ffffffffffffffffffffffffffffffffffffffff1663d505accf3330848d8c8c8c6040518863ffffffff1660e01b8152600401808873ffffffffffffffffffffffffffffffffffffffff1673ffffffffffffffffffffffffffffffffffffffff1681526020018773ffffffffffffffffffffffffffffffffffffffff1673ffffffffffffffffffffffffffffffffffffffff1681526020018681526020018581526020018460ff1660ff168152602001838152602001828152602001975050505050505050600060405180830381600087803b1580156114ee57600080fd5b505af1158015611502573d6000803e3d6000fd5b505050506115158f8f8f8f8f8f8f612666565b809450819550505050509b509b9950505050505050505050565b600060016000838152602001908152602001600020600101549050919050565b61159f60405160200180807f4f574e455200000000000000000000000000000000000000000000000000000081525060050190506040516020818303038152906040528051906020012033612586565b611611576040517f08c379a00000000000000000000000000000000000000000000000000000000081526004018080602001828103825260188152602001807f50726f6869626974656420666f72206e6f6e206f776e6572000000000000000081525060200191505060405180910390fd5b61168360405160200180807f41444d494e000000000000000000000000000000000000000000000000000000815250600501905060405160208183030381529060405280519060200120600260009054906101000a900473ffffffffffffffffffffffffffffffffffffffff16612a4a565b6116d360405160200180807f41444d494e00000000000000000000000000000000000000000000000000000081525060050190506040516020818303038152906040528051906020012082611717565b80600260006101000a81548173ffffffffffffffffffffffffffffffffffffffff021916908373ffffffffffffffffffffffffffffffffffffffff16021790555050565b6117208261152f565b6117298161309b565b61173383836130af565b505050565b61178860405160200180807f41444d494e00000000000000000000000000000000000000000000000000000081525060050190506040516020818303038152906040528051906020012033612586565b6117fa576040517f08c379a00000000000000000000000000000000000000000000000000000000081526004018080602001828103825260198152602001807f50726f6869626974656420666f72206e6f6e2061646d696e730000000000000081525060200191505060405180910390fd5b80600381905550807fcda74150def0ede554aff5f677be9df0e226fddff9bd9ceddf732b9673b1c92d60405160405180910390a250565b61183961318f565b73ffffffffffffffffffffffffffffffffffffffff168173ffffffffffffffffffffffffffffffffffffffff16146118bc576040517f08c379a000000000000000000000000000000000000000000000000000000000815260040180806020018281038252602f815260200180614eba602f913960400191505060405180910390fd5b6118c68282613197565b5050565b60608142811015611943576040517f08c379a00000000000000000000000000000000000000000000000000000000081526004018080602001828103825260168152602001807f50616e63616b65526f757465723a20455850495245440000000000000000000081525060200191505060405180910390fd5b6119af7f000000000000000000000000000000000000000000000000000000000000000089888880806020026020016040519081016040528093929190818152602001838360200280828437600081840152601f19601f82011690508083019250505050505050613279565b91506000600560009054906101000a900473ffffffffffffffffffffffffffffffffffffffff1673ffffffffffffffffffffffffffffffffffffffff166370a08231336040518263ffffffff1660e01b8152600401808273ffffffffffffffffffffffffffffffffffffffff1673ffffffffffffffffffffffffffffffffffffffff16815260200191505060206040518083038186803b158015611a5257600080fd5b505afa158015611a66573d6000803e3d6000fd5b505050506040513d6020811015611a7c57600080fd5b8101908080519060200190929190505050905060006004548210611aa35760009050611b58565b6127106003548b0281611ab257fe5b049050611aea88886000818110611ac557fe5b9050602002013573ffffffffffffffffffffffffffffffffffffffff163330846133f1565b8088886000818110611af857fe5b9050602002013573ffffffffffffffffffffffffffffffffffffffff1673ffffffffffffffffffffffffffffffffffffffff167f55bb3cade9d43b798a4fe5ffdd05024b2d7870df53920673bfc7e68047cd0ab160405160405180910390a35b808a0399508884600186510381518110611b6e57fe5b60200260200101511015611bcd576040517f08c379a0000000000000000000000000000000000000000000000000000000008152600401808060200182810382526029815260200180614db86029913960400191505060405180910390fd5b611c397f00000000000000000000000000000000000000000000000000000000000000008b8a8a80806020026020016040519081016040528093929190818152602001838360200280828437600081840152601f19601f82011690508083019250505050505050613279565b93508884600186510381518110611c4c57fe5b60200260200101511015611cab576040517f08c379a0000000000000000000000000000000000000000000000000000000008152600401808060200182810382526029815260200180614db86029913960400191505060405180910390fd5b611d7088886000818110611cbb57fe5b9050602002013573ffffffffffffffffffffffffffffffffffffffff1633611d567f00000000000000000000000000000000000000000000000000000000000000008c8c6000818110611d0a57fe5b9050602002013573ffffffffffffffffffffffffffffffffffffffff168d8d6001818110611d3457fe5b9050602002013573ffffffffffffffffffffffffffffffffffffffff16612fa4565b87600081518110611d6357fe5b60200260200101516133f1565b611dbc84898980806020026020016040519081016040528093929190818152602001838360200280828437600081840152601f19601f8201169050808301925050505050505088613602565b5050509695505050505050565b611e1960405160200180807f41444d494e00000000000000000000000000000000000000000000000000000081525060050190506040516020818303038152906040528051906020012033612586565b611e8b576040517f08c379a00000000000000000000000000000000000000000000000000000000081526004018080602001828103825260198152602001807f50726f6869626974656420666f72206e6f6e2061646d696e730000000000000081525060200191505060405180910390fd5b80600481905550807f7b1ffeb7108f18e57b8afd7a064966095b5c7cef1212c4e31d5cf6fee2cb1aa260405160405180910390a250565b8042811015611f39576040517f08c379a00000000000000000000000000000000000000000000000000000000081526004018080602001828103825260168152602001807f50616e63616b65526f757465723a20455850495245440000000000000000000081525060200191505060405180910390fd5b611fea85856000818110611f4957fe5b9050602002013573ffffffffffffffffffffffffffffffffffffffff1633611fe47f000000000000000000000000000000000000000000000000000000000000000089896000818110611f9857fe5b9050602002013573ffffffffffffffffffffffffffffffffffffffff168a8a6001818110611fc257fe5b9050602002013573ffffffffffffffffffffffffffffffffffffffff16612fa4565b8a6133f1565b6000858560018888905003818110611ffe57fe5b9050602002013573ffffffffffffffffffffffffffffffffffffffff1673ffffffffffffffffffffffffffffffffffffffff166370a08231856040518263ffffffff1660e01b8152600401808273ffffffffffffffffffffffffffffffffffffffff1673ffffffffffffffffffffffffffffffffffffffff16815260200191505060206040518083038186803b15801561209757600080fd5b505afa1580156120ab573d6000803e3d6000fd5b505050506040513d60208110156120c157600080fd5b8101908080519060200190929190505050905061211f868680806020026020016040519081016040528093929190818152602001838360200280828437600081840152601f19601f82011690508083019250505050505050856138ad565b8661221882888860018b8b90500381811061213657fe5b9050602002013573ffffffffffffffffffffffffffffffffffffffff1673ffffffffffffffffffffffffffffffffffffffff166370a08231886040518263ffffffff1660e01b8152600401808273ffffffffffffffffffffffffffffffffffffffff1673ffffffffffffffffffffffffffffffffffffffff16815260200191505060206040518083038186803b1580156121cf57600080fd5b505afa1580156121e3573d6000803e3d6000fd5b505050506040513d60208110156121f957600080fd5b8101908080519060200190929190505050613d2490919063ffffffff16565b101561226f576040517f08c379a0000000000000000000000000000000000000000000000000000000008152600401808060200182810382526029815260200180614db86029913960400191505060405180910390fd5b5050505050505050565b612281613da7565b61228b6000613e58565b565b60405160200180807f41444d494e00000000000000000000000000000000000000000000000000000081525060050190506040516020818303038152906040528051906020012081565b60006122e4848484613f1c565b90509392505050565b60608142811015612366576040517f08c379a00000000000000000000000000000000000000000000000000000000081526004018080602001828103825260168152602001807f50616e63616b65526f757465723a20455850495245440000000000000000000081525060200191505060405180910390fd5b6123d27f000000000000000000000000000000000000000000000000000000000000000089888880806020026020016040519081016040528093929190818152602001838360200280828437600081840152601f19601f82011690508083019250505050505050612e24565b915086826000815181106123e257fe5b60200260200101511115612441576040517f08c379a0000000000000000000000000000000000000000000000000000000008152600401808060200182810382526025815260200180614e4b6025913960400191505060405180910390fd5b6125068686600081811061245157fe5b9050602002013573ffffffffffffffffffffffffffffffffffffffff16336124ec7f00000000000000000000000000000000000000000000000000000000000000008a8a60008181106124a057fe5b9050602002013573ffffffffffffffffffffffffffffffffffffffff168b8b60018181106124ca57fe5b9050602002013573ffffffffffffffffffffffffffffffffffffffff16612fa4565b856000815181106124f957fe5b60200260200101516133f1565b61255282878780806020026020016040519081016040528093929190818152602001838360200280828437600081840152601f19601f8201169050808301925050505050505086613602565b509695505050505050565b60008060009054906101000a900473ffffffffffffffffffffffffffffffffffffffff16905090565b60006001600084815260200190815260200160002060000160008373ffffffffffffffffffffffffffffffffffffffff1673ffffffffffffffffffffffffffffffffffffffff16815260200190815260200160002060009054906101000a900460ff16905092915050565b6000801b81565b6000600454905090565b7f000000000000000000000000000000000000000000000000000000000000000081565b6000612633848484614059565b90509392505050565b6000600260009054906101000a900473ffffffffffffffffffffffffffffffffffffffff16905090565b60008082428110156126e0576040517f08c379a00000000000000000000000000000000000000000000000000000000081526004018080602001828103825260168152602001807f50616e63616b65526f757465723a20455850495245440000000000000000000081525060200191505060405180910390fd5b600061270d7f00000000000000000000000000000000000000000000000000000000000000008c8c612fa4565b90508073ffffffffffffffffffffffffffffffffffffffff166323b872dd33838c6040518463ffffffff1660e01b8152600401808473ffffffffffffffffffffffffffffffffffffffff1673ffffffffffffffffffffffffffffffffffffffff1681526020018373ffffffffffffffffffffffffffffffffffffffff1673ffffffffffffffffffffffffffffffffffffffff1681526020018281526020019350505050602060405180830381600087803b1580156127ca57600080fd5b505af11580156127de573d6000803e3d6000fd5b505050506040513d60208110156127f457600080fd5b8101908080519060200190929190505050506000808273ffffffffffffffffffffffffffffffffffffffff166389afcb44896040518263ffffffff1660e01b8152600401808273ffffffffffffffffffffffffffffffffffffffff1673ffffffffffffffffffffffffffffffffffffffff1681526020019150506040805180830381600087803b15801561288757600080fd5b505af115801561289b573d6000803e3d6000fd5b505050506040513d60408110156128b157600080fd5b8101908080519060200190929190805190602001909291905050509150915060006128dc8e8e61413d565b5090508073ffffffffffffffffffffffffffffffffffffffff168e73ffffffffffffffffffffffffffffffffffffffff161461291957818361291c565b82825b80975081985050508a87101561297d576040517f08c379a0000000000000000000000000000000000000000000000000000000008152600401808060200182810382526024815260200180614e046024913960400191505060405180910390fd5b898610156129d6576040517f08c379a0000000000000000000000000000000000000000000000000000000008152600401808060200182810382526024815260200180614e966024913960400191505060405180910390fd5b505050505097509795505050505050565b7f000000000000000000000000000000000000000000000000000000000000000081565b6060612a387f00000000000000000000000000000000000000000000000000000000000000008484613279565b905092915050565b6000600354905090565b612a538261152f565b612a5c8161309b565b612a668383613197565b505050565b60405160200180807f4f574e455200000000000000000000000000000000000000000000000000000081525060050190506040516020818303038152906040528051906020012081565b60008060008342811015612b31576040517f08c379a00000000000000000000000000000000000000000000000000000000081526004018080602001828103825260168152602001807f50616e63616b65526f757465723a20455850495245440000000000000000000081525060200191505060405180910390fd5b612b3f8c8c8c8c8c8c6142b4565b80945081955050506000612b747f00000000000000000000000000000000000000000000000000000000000000008e8e612fa4565b9050612b828d3383886133f1565b612b8e8c3383876133f1565b8073ffffffffffffffffffffffffffffffffffffffff16636a627842886040518263ffffffff1660e01b8152600401808273ffffffffffffffffffffffffffffffffffffffff1673ffffffffffffffffffffffffffffffffffffffff168152602001915050602060405180830381600087803b158015612c0d57600080fd5b505af1158015612c21573d6000803e3d6000fd5b505050506040513d6020811015612c3757600080fd5b810190808051906020019092919050505092505050985098509895505050505050565b612c62613da7565b600073ffffffffffffffffffffffffffffffffffffffff168173ffffffffffffffffffffffffffffffffffffffff161415612ce8576040517f08c379a0000000000000000000000000000000000000000000000000000000008152600401808060200182810382526026815260200180614d376026913960400191505060405180910390fd5b612cf181613e58565b50565b6000808411612d4e576040517f08c379a0000000000000000000000000000000000000000000000000000000008152600401808060200182810382526029815260200180614d0e6029913960400191505060405180910390fd5b600083118015612d5e5750600082115b612db3576040517f08c379a0000000000000000000000000000000000000000000000000000000008152600401808060200182810382526026815260200180614e706026913960400191505060405180910390fd5b6000612dca6126f78661469690919063ffffffff16565b90506000612de1848361469690919063ffffffff16565b90506000612e0c83612dfe6127108961469690919063ffffffff16565b61472b90919063ffffffff16565b9050808281612e1757fe5b0493505050509392505050565b6060600282511015612e9e576040517f08c379a000000000000000000000000000000000000000000000000000000000815260040180806020018281038252601c8152602001807f50616e63616b654c6962726172793a20494e56414c49445f504154480000000081525060200191505060405180910390fd5b815167ffffffffffffffff81118015612eb657600080fd5b50604051908082528060200260200182016040528015612ee55781602001602082028036833780820191505090505b5090508281600183510381518110612ef957fe5b6020026020010181815250506000600183510390505b6000811115612f9c57600080612f4f87866001860381518110612f2e57fe5b6020026020010151878681518110612f4257fe5b60200260200101516147ae565b91509150612f71848481518110612f6257fe5b60200260200101518383613f1c565b846001850381518110612f8057fe5b6020026020010181815250505050808060019003915050612f0f565b509392505050565b60008373ffffffffffffffffffffffffffffffffffffffff1663e6a4390584846040518363ffffffff1660e01b8152600401808373ffffffffffffffffffffffffffffffffffffffff1673ffffffffffffffffffffffffffffffffffffffff1681526020018273ffffffffffffffffffffffffffffffffffffffff1673ffffffffffffffffffffffffffffffffffffffff1681526020019250505060206040518083038186803b15801561305757600080fd5b505afa15801561306b573d6000803e3d6000fd5b505050506040513d602081101561308157600080fd5b810190808051906020019092919050505090509392505050565b6130ac816130a761318f565b6148e3565b50565b6130b98282612586565b61318b57600180600084815260200190815260200160002060000160008373ffffffffffffffffffffffffffffffffffffffff1673ffffffffffffffffffffffffffffffffffffffff16815260200190815260200160002060006101000a81548160ff02191690831515021790555061313061318f565b73ffffffffffffffffffffffffffffffffffffffff168173ffffffffffffffffffffffffffffffffffffffff16837f2f8788117e7eff1d82e926ec794901d17c78024a50270940304540a733656f0d60405160405180910390a45b5050565b600033905090565b6131a18282612586565b156132755760006001600084815260200190815260200160002060000160008373ffffffffffffffffffffffffffffffffffffffff1673ffffffffffffffffffffffffffffffffffffffff16815260200190815260200160002060006101000a81548160ff02191690831515021790555061321a61318f565b73ffffffffffffffffffffffffffffffffffffffff168173ffffffffffffffffffffffffffffffffffffffff16837ff6391f5c32d9c69d2a47ea670b442974b53935d1edc7fd64eb21e047a839171b60405160405180910390a45b5050565b60606002825110156132f3576040517f08c379a000000000000000000000000000000000000000000000000000000000815260040180806020018281038252601c8152602001807f50616e63616b654c6962726172793a20494e56414c49445f504154480000000081525060200191505060405180910390fd5b815167ffffffffffffffff8111801561330b57600080fd5b5060405190808252806020026020018201604052801561333a5781602001602082028036833780820191505090505b509050828160008151811061334b57fe5b60200260200101818152505060005b60018351038110156133e95760008061339d8786858151811061337957fe5b602002602001015187600187018151811061339057fe5b60200260200101516147ae565b915091506133bf8484815181106133b057fe5b60200260200101518383612cf4565b8460018501815181106133ce57fe5b6020026020010181815250505050808060010191505061335a565b509392505050565b600060608573ffffffffffffffffffffffffffffffffffffffff166323b872dd868686604051602401808473ffffffffffffffffffffffffffffffffffffffff1673ffffffffffffffffffffffffffffffffffffffff1681526020018373ffffffffffffffffffffffffffffffffffffffff1673ffffffffffffffffffffffffffffffffffffffff16815260200182815260200193505050506040516020818303038152906040529060e01b6020820180517bffffffffffffffffffffffffffffffffffffffffffffffffffffffff83818316178352505050506040518082805190602001908083835b602083106134fe57805182526020820191506020810190506020830392506134db565b6001836020036101000a0380198251168184511680821785525050505050509050019150506000604051808303816000865af19150503d8060008114613560576040519150601f19603f3d011682016040523d82523d6000602084013e613565565b606091505b50915091508180156135a557506000815114806135a4575080806020019051602081101561359257600080fd5b81019080805190602001909291905050505b5b6135fa576040517f08c379a0000000000000000000000000000000000000000000000000000000008152600401808060200182810382526031815260200180614d876031913960400191505060405180910390fd5b505050505050565b60005b60018351038110156138a75760008084838151811061362057fe5b602002602001015185600185018151811061363757fe5b602002602001015191509150600061364f838361413d565b509050600087600186018151811061366357fe5b602002602001015190506000808373ffffffffffffffffffffffffffffffffffffffff168673ffffffffffffffffffffffffffffffffffffffff16146136ab578260006136af565b6000835b91509150600060028a510388106136c65788613708565b6137077f0000000000000000000000000000000000000000000000000000000000000000878c60028c01815181106136fa57fe5b6020026020010151612fa4565b5b90506137357f00000000000000000000000000000000000000000000000000000000000000008888612fa4565b73ffffffffffffffffffffffffffffffffffffffff1663022c0d9f848484600067ffffffffffffffff8111801561376b57600080fd5b506040519080825280601f01601f19166020018201604052801561379e5781602001600182028036833780820191505090505b506040518563ffffffff1660e01b8152600401808581526020018481526020018373ffffffffffffffffffffffffffffffffffffffff1673ffffffffffffffffffffffffffffffffffffffff16815260200180602001828103825283818151815260200191508051906020019080838360005b8381101561382c578082015181840152602081019050613811565b50505050905090810190601f1680156138595780820380516001836020036101000a031916815260200191505b5095505050505050600060405180830381600087803b15801561387b57600080fd5b505af115801561388f573d6000803e3d6000fd5b50505050505050505050508080600101915050613605565b50505050565b60005b6001835103811015613d1f576000808483815181106138cb57fe5b60200260200101518560018501815181106138e257fe5b60200260200101519150915060006138fa838361413d565b509050600061392a7f00000000000000000000000000000000000000000000000000000000000000008585612fa4565b90506000806000808473ffffffffffffffffffffffffffffffffffffffff16630902f1ac6040518163ffffffff1660e01b815260040160606040518083038186803b15801561397857600080fd5b505afa15801561398c573d6000803e3d6000fd5b505050506040513d60608110156139a257600080fd5b81019080805190602001909291908051906020019092919080519060200190929190505050506dffffffffffffffffffffffffffff1691506dffffffffffffffffffffffffffff1691506000808773ffffffffffffffffffffffffffffffffffffffff168a73ffffffffffffffffffffffffffffffffffffffff1614613a29578284613a2c565b83835b91509150613afa828b73ffffffffffffffffffffffffffffffffffffffff166370a082318a6040518263ffffffff1660e01b8152600401808273ffffffffffffffffffffffffffffffffffffffff1673ffffffffffffffffffffffffffffffffffffffff16815260200191505060206040518083038186803b158015613ab157600080fd5b505afa158015613ac5573d6000803e3d6000fd5b505050506040513d6020811015613adb57600080fd5b8101908080519060200190929190505050613d2490919063ffffffff16565b9550613b07868383612cf4565b9450505050506000808573ffffffffffffffffffffffffffffffffffffffff168873ffffffffffffffffffffffffffffffffffffffff1614613b4b57826000613b4f565b6000835b91509150600060028c51038a10613b66578a613ba8565b613ba77f0000000000000000000000000000000000000000000000000000000000000000898e60028e0181518110613b9a57fe5b6020026020010151612fa4565b5b90508573ffffffffffffffffffffffffffffffffffffffff1663022c0d9f848484600067ffffffffffffffff81118015613be157600080fd5b506040519080825280601f01601f191660200182016040528015613c145781602001600182028036833780820191505090505b506040518563ffffffff1660e01b8152600401808581526020018481526020018373ffffffffffffffffffffffffffffffffffffffff1673ffffffffffffffffffffffffffffffffffffffff16815260200180602001828103825283818151815260200191508051906020019080838360005b83811015613ca2578082015181840152602081019050613c87565b50505050905090810190601f168015613ccf5780820380516001836020036101000a031916815260200191505b5095505050505050600060405180830381600087803b158015613cf157600080fd5b505af1158015613d05573d6000803e3d6000fd5b5050505050505050505050505080806001019150506138b0565b505050565b6000828284039150811115613da1576040517f08c379a00000000000000000000000000000000000000000000000000000000081526004018080602001828103825260158152602001807f64732d6d6174682d7375622d756e646572666c6f77000000000000000000000081525060200191505060405180910390fd5b92915050565b613daf61318f565b73ffffffffffffffffffffffffffffffffffffffff16613dcd61255d565b73ffffffffffffffffffffffffffffffffffffffff1614613e56576040517f08c379a00000000000000000000000000000000000000000000000000000000081526004018080602001828103825260208152602001807f4f776e61626c653a2063616c6c6572206973206e6f7420746865206f776e657281525060200191505060405180910390fd5b565b60008060009054906101000a900473ffffffffffffffffffffffffffffffffffffffff169050816000806101000a81548173ffffffffffffffffffffffffffffffffffffffff021916908373ffffffffffffffffffffffffffffffffffffffff1602179055508173ffffffffffffffffffffffffffffffffffffffff168173ffffffffffffffffffffffffffffffffffffffff167f8be0079c531659141344cd1fd0a4f28419497f9722a3daafe3b4186f6b6457e060405160405180910390a35050565b6000808411613f76576040517f08c379a000000000000000000000000000000000000000000000000000000000815260040180806020018281038252602a815260200180614d5d602a913960400191505060405180910390fd5b600083118015613f865750600082115b613fdb576040517f08c379a0000000000000000000000000000000000000000000000000000000008152600401808060200182810382526026815260200180614e706026913960400191505060405180910390fd5b6000614004612710613ff6878761469690919063ffffffff16565b61469690919063ffffffff16565b9050600061402f6126f76140218887613d2490919063ffffffff16565b61469690919063ffffffff16565b905061404e600182848161403f57fe5b0461472b90919063ffffffff16565b925050509392505050565b60008084116140b3576040517f08c379a0000000000000000000000000000000000000000000000000000000008152600401808060200182810382526023815260200180614e286023913960400191505060405180910390fd5b6000831180156140c35750600082115b614118576040517f08c379a0000000000000000000000000000000000000000000000000000000008152600401808060200182810382526026815260200180614e706026913960400191505060405180910390fd5b8261412c838661469690919063ffffffff16565b8161413357fe5b0490509392505050565b6000808273ffffffffffffffffffffffffffffffffffffffff168473ffffffffffffffffffffffffffffffffffffffff1614156141c5576040517f08c379a0000000000000000000000000000000000000000000000000000000008152600401808060200182810382526023815260200180614de16023913960400191505060405180910390fd5b8273ffffffffffffffffffffffffffffffffffffffff168473ffffffffffffffffffffffffffffffffffffffff16106141ff578284614202565b83835b8092508193505050600073ffffffffffffffffffffffffffffffffffffffff168273ffffffffffffffffffffffffffffffffffffffff1614156142ad576040517f08c379a000000000000000000000000000000000000000000000000000000000815260040180806020018281038252601c8152602001807f50616e63616b654c6962726172793a205a45524f5f414444524553530000000081525060200191505060405180910390fd5b9250929050565b600080600073ffffffffffffffffffffffffffffffffffffffff167f000000000000000000000000000000000000000000000000000000000000000073ffffffffffffffffffffffffffffffffffffffff1663e6a439058a8a6040518363ffffffff1660e01b8152600401808373ffffffffffffffffffffffffffffffffffffffff1673ffffffffffffffffffffffffffffffffffffffff1681526020018273ffffffffffffffffffffffffffffffffffffffff1673ffffffffffffffffffffffffffffffffffffffff1681526020019250505060206040518083038186803b1580156143a057600080fd5b505afa1580156143b4573d6000803e3d6000fd5b505050506040513d60208110156143ca57600080fd5b810190808051906020019092919050505073ffffffffffffffffffffffffffffffffffffffff161415614507577f000000000000000000000000000000000000000000000000000000000000000073ffffffffffffffffffffffffffffffffffffffff1663c9c6539689896040518363ffffffff1660e01b8152600401808373ffffffffffffffffffffffffffffffffffffffff1673ffffffffffffffffffffffffffffffffffffffff1681526020018273ffffffffffffffffffffffffffffffffffffffff1673ffffffffffffffffffffffffffffffffffffffff16815260200192505050602060405180830381600087803b1580156144ca57600080fd5b505af11580156144de573d6000803e3d6000fd5b505050506040513d60208110156144f457600080fd5b8101908080519060200190929190505050505b6000806145357f00000000000000000000000000000000000000000000000000000000000000008b8b6147ae565b915091506000821480156145495750600081145b1561455d5787878094508195505050614689565b600061456a898484614059565b90508781116145db57858110156145cc576040517f08c379a0000000000000000000000000000000000000000000000000000000008152600401808060200182810382526024815260200180614e966024913960400191505060405180910390fd5b88818095508196505050614687565b60006145e8898486614059565b9050898111156145f457fe5b8781101561464d576040517f08c379a0000000000000000000000000000000000000000000000000000000008152600401808060200182810382526024815260200180614e046024913960400191505060405180910390fd5b8089809650819750505084867fcb1652de9aeec38545fc281847b3dbfc89aab56dfa907b1ab68466f602c36fb460405160405180910390a3505b505b5050965096945050505050565b6000808214806146b357508282838502925082816146b057fe5b04145b614725576040517f08c379a00000000000000000000000000000000000000000000000000000000081526004018080602001828103825260148152602001807f64732d6d6174682d6d756c2d6f766572666c6f7700000000000000000000000081525060200191505060405180910390fd5b92915050565b60008282840191508110156147a8576040517f08c379a00000000000000000000000000000000000000000000000000000000081526004018080602001828103825260148152602001807f64732d6d6174682d6164642d6f766572666c6f7700000000000000000000000081525060200191505060405180910390fd5b92915050565b60008060006147bd858561413d565b5090506147cb868686612fa4565b506000806147da888888612fa4565b73ffffffffffffffffffffffffffffffffffffffff16630902f1ac6040518163ffffffff1660e01b815260040160606040518083038186803b15801561481f57600080fd5b505afa158015614833573d6000803e3d6000fd5b505050506040513d606081101561484957600080fd5b81019080805190602001909291908051906020019092919080519060200190929190505050506dffffffffffffffffffffffffffff1691506dffffffffffffffffffffffffffff1691508273ffffffffffffffffffffffffffffffffffffffff168773ffffffffffffffffffffffffffffffffffffffff16146148cd5780826148d0565b81815b8095508196505050505050935093915050565b6148ed8282612586565b614ab5576148fa81614ab9565b6149088360001c6020614ae6565b60405160200180807f416363657373436f6e74726f6c3a206163636f756e742000000000000000000081525060170183805190602001908083835b602083106149665780518252602082019150602081019050602083039250614943565b6001836020036101000a038019825116818451168082178552505050505050905001807f206973206d697373696e6720726f6c652000000000000000000000000000000081525060110182805190602001908083835b602083106149df57805182526020820191506020810190506020830392506149bc565b6001836020036101000a038019825116818451168082178552505050505050905001925050506040516020818303038152906040526040517f08c379a00000000000000000000000000000000000000000000000000000000081526004018080602001828103825283818151815260200191508051906020019080838360005b83811015614a7a578082015181840152602081019050614a5f565b50505050905090810190601f168015614aa75780820380516001836020036101000a031916815260200191505b509250505060405180910390fd5b5050565b6060614adf8273ffffffffffffffffffffffffffffffffffffffff16601460ff16614ae6565b9050919050565b6060806002836002020167ffffffffffffffff81118015614b0657600080fd5b506040519080825280601f01601f191660200182016040528015614b395781602001600182028036833780820191505090505b5090507f300000000000000000000000000000000000000000000000000000000000000081600081518110614b6a57fe5b60200101907effffffffffffffffffffffffffffffffffffffffffffffffffffffffffffff1916908160001a9053507f780000000000000000000000000000000000000000000000000000000000000081600181518110614bc757fe5b60200101907effffffffffffffffffffffffffffffffffffffffffffffffffffffffffffff1916908160001a90535060006001846002020190505b6001811115614c8c577f3031323334353637383961626364656600000000000000000000000000000000600f861660108110614c3a57fe5b1a60f81b828281518110614c4a57fe5b60200101907effffffffffffffffffffffffffffffffffffffffffffffffffffffffffffff1916908160001a905350600485901c945080600190039050614c02565b5060008414614d03576040517f08c379a00000000000000000000000000000000000000000000000000000000081526004018080602001828103825260208152602001807f537472696e67733a20686578206c656e67746820696e73756666696369656e7481525060200191505060405180910390fd5b809150509291505056fe50616e63616b654c6962726172793a20494e53554646494349454e545f494e5055545f414d4f554e544f776e61626c653a206e6577206f776e657220697320746865207a65726f206164647265737350616e63616b654c6962726172793a20494e53554646494349454e545f4f55545055545f414d4f554e545472616e7366657248656c7065723a3a7472616e7366657246726f6d3a207472616e7366657246726f6d206661696c656450616e63616b65526f757465723a20494e53554646494349454e545f4f55545055545f414d4f554e5450616e63616b654c6962726172793a204944454e544943414c5f41444452455353455350616e63616b65526f757465723a20494e53554646494349454e545f415f414d4f554e5450616e63616b654c6962726172793a20494e53554646494349454e545f414d4f554e5450616e63616b65526f757465723a204558434553534956455f494e5055545f414d4f554e5450616e63616b654c6962726172793a20494e53554646494349454e545f4c495155494449545950616e63616b65526f757465723a20494e53554646494349454e545f425f414d4f554e54416363657373436f6e74726f6c3a2063616e206f6e6c792072656e6f756e636520726f6c657320666f722073656c66a26469706673582212200f1ea4d1426d8c168edac8a145ae85bcd64f9c3c7cc01b9707318c47eb04351264736f6c63430006060033",
  "linkReferences": {},
  "deployedLinkReferences": {}
}